:100000000C9434000C943E000C943E000C943E0082
:100010000C943E000C943E000C943E000C943E0068
:100020000C943E000C943E000C943E000C943E0058
:100030000C943E000C943E000C943E000C943E0048
:100040000C943E000C943E000C943E000C943E0038
:100050000C943E000C943E000C943E000C943E0028
:100060000C943E000C943E0011241FBECFEFD8E04C
:10007000DEBFCDBF0E9440000C94D3000C94000062
:1000800082E465E070E041E050E00E94630082E4B9
:1000900063E070E040E050E00E94630082E462E0D0
:1000A00070E040E050E00E9463001B9B0AC01A9B76
:1000B00008C082E465E070E041E050E00E94B700D3
:1000C000F4CF2D98F2CF8334F9F08434B1F1823437
:1000D00009F04CC04130510541F484B102C0440FD5
:1000E000551F6A95E2F7842B0DC0452B09F03EC0E1
:1000F00024B181E090E002C0880F991F6A95E2F771
:100100008095822384B908954130510541F487B127
:1001100002C0440F551F6A95E2F7842B0CC0452B93
:1001200029F527B181E090E002C0880F991F6A95F8
:10013000E2F78095822387B908954130510549F44B
:100140008AB102C0440F551F6A95E2F7842B8AB921
:100150000895452B59F42AB181E090E002C0880F40
:10016000991F6A95E2F7809582238AB908958234AF
:10017000C9F44130510549F485B102C0440F551FFF
:100180006A95E2F7842B85B90895452B59F425B17A
:1001900081E090E002C0880F991F6A95E2F7809590
:0A01A000822385B90895F894FFCF7B
:00000001FF
