:100000000C9434000C943E000C943E000C943E0082
:100010000C943E000C943E000C943E000C943E0068
:100020000C943E000C943E000C943E000C943E0058
:100030000C943E000C943E000C943E000C943E0048
:100040000C943E000C943E000C943E000C943E0038
:100050000C943E000C943E000C943E000C943E0028
:100060000C943E000C943E0011241FBECFEFD8E04C
:10007000DEBFCDBF0E9440000C943C010C940000F8
:1000800082E465E070E041E050E00E94710082E4AB
:1000900063E070E040E050E00E94710082E462E0C2
:1000A00070E040E050E00E94710082E463E070E0A4
:1000B0000E941901882369F082E462E070E00E94E6
:1000C0001901882331F082E465E070E041E050E0FE
:1000D00005C082E465E070E040E050E00E94C500A9
:1000E000E4CF8334F9F08434B1F1823409F04CC0A8
:1000F0004130510541F484B102C0440F551F6A9547
:10010000E2F7842B0DC0452B09F03EC024B181E0FD
:1001100090E002C0880F991F6A95E2F780958223CC
:1001200084B908954130510541F487B102C0440FAC
:10013000551F6A95E2F7842B0CC0452B29F527B192
:1001400081E090E002C0880F991F6A95E2F78095E0
:10015000822387B908954130510549F48AB102C01C
:10016000440F551F6A95E2F7842B8AB90895452BF1
:1001700059F42AB181E090E002C0880F991F6A9576
:10018000E2F7809582238AB908958334F9F08434A4
:10019000B1F1823409F04CC04130510541F485B1D0
:1001A00002C0440F551F6A95E2F7842B0DC0452B02
:1001B00009F03EC025B181E090E002C0880F991F90
:1001C0006A95E2F78095822385B9089541305105FB
:1001D00041F488B102C0440F551F6A95E2F7842BA1
:1001E0000CC0452B29F528B181E090E002C0880FB2
:1001F000991F6A95E2F78095822388B90895413066
:10020000510549F48BB102C0440F551F6A95E2F7BE
:10021000842B8BB90895452B59F42BB181E090E0E4
:1002200002C0880F991F6A95E2F7809582238BB9E7
:100230000895833431F0843431F08234D1F423B121
:1002400003C026B101C029B140E081E090E0062E54
:1002500002C0880F991F0A94E2F730E082239323AB
:1002600002C0959587956A95E2F7892B19F041E0D0
:0C02700001C00895842F0895F894FFCF7A
:00000001FF
