:100000000C9434000C9446000C9446000C9446006A
:100010000C9446000C9446000C9446000C94460048
:100020000C9446000C9446000C9446000C94460038
:100030000C9446000C9446000C9446000C94460028
:100040000C9446000C9446000C9446000C94460018
:100050000C9446000C9446000C9446000C94460008
:100060000C9446000C94460011241FBECFEFD8E03C
:10007000DEBFCDBF11E0A0E0B1E001C01D92A23013
:10008000B107E1F70E946E000C9493010C940000FC
:1000900082E463E070E00E943601882369F082E424
:1000A00062E070E00E943601882331F082E465E06E
:1000B00070E041E050E005C082E465E070E040E0BF
:1000C00050E00E94E20080E00E94670190930101ED
:1000D0008093000189E60E948701DACF82E465E01F
:1000E00070E041E050E00E948E0082E463E070E046
:1000F00040E050E00E948E0082E462E070E040E068
:1001000050E00E948E0087E061E00E94590187E67E
:1001100090E00E947D010E94480008958334F9F028
:100120008434B1F1823409F04CC04130510541F4BE
:1001300084B102C0440F551F6A95E2F7842B0DC0AD
:10014000452B09F03EC024B181E090E002C0880F49
:10015000991F6A95E2F78095822384B9089541300A
:10016000510541F487B102C0440F551F6A95E2F76B
:10017000842B0CC0452B29F527B181E090E002C00B
:10018000880F991F6A95E2F78095822387B90895B1
:100190004130510549F48AB102C0440F551F6A9598
:1001A000E2F7842B8AB90895452B59F42AB181E0EE
:1001B00090E002C0880F991F6A95E2F7809582232C
:1001C0008AB908958334F9F08434B1F1823409F0A6
:1001D0004CC04130510541F485B102C0440F551F58
:1001E0006A95E2F7842B0DC0452B09F03EC025B17E
:1001F00081E090E002C0880F991F6A95E2F7809530
:10020000822385B908954130510541F488B102C077
:10021000440F551F6A95E2F7842B0CC0452B29F536
:1002200028B181E090E002C0880F991F6A95E2F73B
:100230008095822388B908954130510549F48BB1E6
:1002400002C0440F551F6A95E2F7842B8BB90895BD
:10025000452B59F42BB181E090E002C0880F991F23
:100260006A95E2F7809582238BB90895833431F043
:10027000843431F08234D1F423B103C026B101C0FB
:1002800029B140E081E090E0062E02C0880F991F5E
:100290000A94E2F730E08223932302C09595879574
:1002A0006A95E2F7892B19F041E001C00895842F87
:1002B0000895ECE7F0E09081962B9083EAE7F0E078
:1002C0009081982B9083808180688083089590919D
:1002D0007C008F70907F892B80937C0080917A00C6
:1002E000806480937A0080917A0086FDFCCF209113
:1002F000780030917900C90108958093C4009093EB
:10030000C500E1ECF0E080818861808308958093EE
:10031000C60088EE93E020E931E0F9013197F1F76A
:0A0320000197D9F70895F894FFCF74
:00000001FF
